S01500006B6F6D6D756E696B6174696F6E2E7372656389
S113000045C0000062C0000060C000005EC0000087
S11300105CC000005AC0000058C0000056C0000078
S113002054C0000052C0000050C000004EC0000088
S11300304CC000004AC0000048C0000046C0000098
S113004044C0000042C0000040C000003EC00000A8
S1130050E3C000003AC0000038C0000036C0000011
S113006034C0000032C0000030C000002EC00000C8
S1130070C0C000002AC0000028C0000026C0000044
S113008024C0000022C0000020C0000011241FBEB4
S1130090CFEFD0E4DEBFCDBF11E0A0E0B1E0E4E3F8
S11300A0F2E100E00BBF02C007900D92A830B10747
S11300B0D9F726E0A8E0B1E001C01D92A632B2074C
S11300C0E1F70E94DD080C9418099ACF86E68AB9F4
S11300D08FEF84B90E94FC080E94F0087894089578
S11300E0009721F081309105B9F02CC020912401B2
S11300F0309125012F5F3F4F309325012093240138
S1130100209124013091250124303105D9F4109235
S113011025011092240116C020912401309125015B
S11301202150310930932501209324012091240189
S113013030912501332334F423E030E0309325015A
S1130140209324012091240130912501EDE0F6E073
S1130150268783870895BF92CF92DF92EF92FF9212
S11301600F931F93CF93DF93E12CF12C0F2EF2E327
S1130170BF2EF02D26C0DC2EF801EC0FFD1F908160
S113018080910501981312C0109207018C2D0E94D2
S11301900809809107018132E1F7109207018D2D42
S11301A00E940809809107018132E1F72196C23348
S11301B0D10509F78FEFE81AF80A89E1E816F10486
S11301C059F0CE2CC0E0D0E0BE9C8001BF9C100D45
S11301D01124095D1E4FCFCF8FEF0E940809DF91D4
S11301E0CF911F910F91FF90EF90DF90CF90BF9030
S11301F008951F920F920FB60F9211248F9380913E
S1130200CE008093070181E080931E018F910F90AF
S11302100FBE0F901F9018951F920F920FB60F925A
S113022011240BB60F928F939F93EF93FF93109229
S11302301201E0911F01F09120018091C600E35F5B
S1130240F94F808380911F01909120010196909332
S1130250200180931F0180911F01909120010A9732
S113026039F41092200110921F0181E08093120151
S1130270FF91EF919F918F910F900BBE0F900FBE46
S11302800F901F901895EEE1F6E0868190E0909330
S1130290190180931801878190E09093170180934E
S11302A016010895F0DF80911601909117012091B5
S11302B0180130911901982F8827820F931F90936A
S11302C01B0180931A01089580910201909103010A
S11302D0019731F481E0A4D7109203011092020136
S11302E080911E06843160F480911F06843140F4AD
S11302F01092130181E090E0909303018093020136
S11303000895809112018130E1F7F89480E090E043
S1130310FC01E35FF94F2081FC01E25EF94F208389
S1130320019688309105A1F77894BCCF0895CF93B6
S1130330DF93E7DF8091080190910901809317060C
S1130340C0E0D0E010920701FE01E25EF94F808127
S11303505FD7809107018132E1F72196C830D1053A
S113036089F7C8E0D0E010920701FE01E35FF94F7E
S113037080814ED7809107018132E1F72196CF30F9
S1130380D10589F71092070110921E01DF91CF91D8
S11303900895809107018031A1F08033D1F081303C
S11303A0F1F48093150110921401ABDF80911A01CE
S11303B090911B01909311018093100181E030D73B
S11303C00EC01092150181E08093140180E028D7BB
S11303D006C01092150181E080931401BCDE1092D6
S11303E01E01089580912401909125018130910589
S11303F0B9F11CF4892B49F008958230910509F470
S113040062C0039709F48AC00895809126018F5F22
S11304108093260180912601E0910601F0E022E319
S1130420829FE00DF11D1124E85DFE4F90818091C3
S113043023019813A4C080912206883208F09FC03B
S113044090912601E0910601F0E08091050122E3FC
S1130450929FE00DF11D1124E85DFE4F8083089505
S1130460809106018F5F809306018091260190E0C0
S113047001972091060132E3389FF001399FF00D76
S11304801124E95DFE4FE20FF11D9081809123015B
S1130490981375C080912206883208F070C080914C
S11304A0260190E00197309106012091050142E375
S11304B0489FF001499FF00D1124E95DFE4FE30FC1
S11304C0F11D208308958091260181508093260197
S11304D080912601E0910601F0E092E3899FE00D0E
S11304E0F11D1124EA5DFE4F908180912301981340
S11304F046C080912206883208F041C090912601BE
S1130500E0910601F0E08091050122E3929FE00D65
S1130510F11D1124EA5DFE4F808308958091060148
S11305208150809306018091260190E001962091EC
S1130530060132E3389FF001399FF00D1124E95D83
S1130540FE4FE20FF11D908180912301981317C093
S113055080912206883298F48091260190E00196D9
S1130560309106012091050142E3489FF001499F23
S1130570F00D1124E95DFE4FE30FF11D2083089572
S11305808FE090E090930101809300018BDE2ADFDD
S1130590E0912601909106018091040122E3E29FFB
S11305A0F0011124E95DFE4FE90FF11D8083809174
S11305B02601EDE0F6E0848780910601858780912D
S11305C0210190912201892B31F481E090E09093F4
S11305D022018093210180912101909122010197B0
S11305E0D1F480910C0190910D010197A1F49091A7
S11305F0060180911D0198130EC090911C018091F9
S11306002601981308C010920D0110920C01A9D173
S113061080E006C6089580912101909122010197FE
S113062009F58091260181111DC08091060189314F
S1130630C9F480910A0190910B01019769F4109219
S11306400F0110920E0144D01092150181E08093A5
S1130650140180E0E5C5089582E090E090932201C2
S113066080932101089580E0DBD580910E01909163
S11306700F010D9728F084DF10920F0110920E01E4
S113068081E08093130188E0CBD5EDE0F6E08FE4C0
S1130690808782E5828780858434E9F780E0C0D54D
S11306A080E090E01DDD2FEF8FEF98E02150804037
S11306B09040E1F700C000003ADE80911A01909169
S11306C01B01909311018093100181E0A9C5089545
S11306D080E0A6D580910E0190910F010D9728F02E
S11306E04FDF10920F0110920E0181E080931301ED
S11306F08FEF9FE80197F1F700C0000084E090D5E8
S1130700EDE0F6E08FE480878CE482878085843492
S1130710E9F780E085D581E090E0E2DC9FEF2FEF00
S113072088E0915020408040E1F700C000008091B3
S11307302401909125018130910599F11CF4892BB4
S113074049F0B0C08230910509F45AC0039709F406
S11307507DC0A8C080912206883208F0A3C0809191
S11307602601E0910601F0E092E3899FE00DF11D7E
S11307701124E85DFE4F908180910401981709F4DB
S113078091C090912601E0910601F0E0809105016D
S113079022E3929FE00DF11D1124E85DFE4F80835A
S11307A081C080912206883208F07CC080912601A5
S11307B090E001972091060132E3389FF001399FC0
S11307C0F00D1124E95DFE4FE20FF11D908180913F
S11307D00401981709F466C08091260190E00197FE
S11307E0309106012091050142E3489FF001499FA1
S11307F0F00D1124E95DFE4FE30FF11D208352C07B
S113080080912206883208F04DC080912601E09143
S11308100601F0E092E3899FE00DF11D1124EA5DE9
S1130820FE4F9081809104019817E1F19091260187
S1130830E0910601F0E08091050122E3929FE00D32
S1130840F11D1124EA5DFE4F80832CC080912206A5
S1130850883240F58091260190E0019620910601AE
S113086032E3389FF001399FF00D1124E95DFE4F0A
S1130870E20FF11D908180910401981799F0809105
S1130880260190E00196309106012091050142E392
S1130890489FF001499FF00D1124E95DFE4FE30FDD
S11308A0F11D208344DD80911A0190911B019093E6
S11308B0110180931001089581E0B2D422DD80916A
S11308C01A0190911B010D97C8F780E0A9D41092EA
S11308D0130110920F0110920E0180910801909162
S11308E00901019741F580912401909125018130FE
S11308F0910581F01CF4892B39F01DC082309105DB
S113090079F0039799F017C0809126018F5F809347
S1130910260111C0809106018F5F809306010BC0F0
S11309208091260181508093260105C080910601A3
S1130930815080930601CCDE8091060180931D01D5
S11309408091260180931C0180E06AD481E090E0CC
S1130950909322018093210190930D0180930C01C7
S1130960089510920F0110920E01B2DE81E058D466
S1130970C8DC80911A0190911B010C97C8F780E0A4
S11309804FD41092130110920F0110920E01809116
S1130990080190910901019759F58AE080931C069A
S11309A080912401909125018130910581F01CF4FE
S11309B0892B39F01DC08230910579F0039799F0A5
S11309C017C0809126018F5F8093260111C080910A
S11309D006018F5F809306010BC080912601815030
S11309E08093260105C08091060181508093060101
S11309F06FDE81E090E09093220180932101909337
S1130A000B0180930A0108957CDC8091240190916C
S1130A1025018130910509F4D9C01CF4892B49F0D2
S1130A2008958230910509F4B0C1039709F472C2A4
S1130A30089580912601E0910601F0E022E3829F6F
S1130A40E00DF11D1124EA5DFE4F90818091230198
S1130A50981789F080912601E0910601F0E092E375
S1130A60899FE00DF11D1124EA5DFE4F9081809174
S1130A700401981328C380912306893108F04BC0E0
S1130A8080912106893108F046C080911E06843188
S1130A9008F041C080911F06843108F03CC0809169
S1130AA022068431C0F580912601E0910601F0E030
S1130AB022E3829FE00DF11D1124EA5DFE4F908137
S1130AC080912301981327C080910E0190910F010A
S1130AD04E9728F055DD10920F0110920E0190915F
S1130AE02601E0910601F0E08091050122E3929F46
S1130AF0E00DF11D1124EA5DFE4F808380E090D368
S1130B00E7DD80E08DD3D8DE81E090E09093220190
S1130B10809321010895809123068A3108F4D3C279
S1130B20809121068A3108F4CEC2809123068B3449
S1130B3008F0C9C2809121068B3408F0C4C28091A8
S1130B402601E0910601F0E092E3899FE00DF11D9A
S1130B501124EB5DFE4F9081809123019813B3C261
S1130B6080911E06843108F0AEC280911F06843144
S1130B7008F0A9C280912206843108F0A4C281E061
S1130B8090E0909309018093080180910E01909167
S1130B900F014E9728F0F4DC10920F0110920E0111
S1130BA090912601E0910601F0E08091050122E395
S1130BB0929FE00DF11D1124EB5DFE4F808380E0D8
S1130BC02FD386DD80E02CD377CE08958091260143
S1130BD090E001962091060132E3389FF001399F9D
S1130BE0F00D1124E95DFE4FE20FF11D908180911B
S1130BF023019817A1F08091260190E0019620919D
S1130C000601389FF001399FF00D1124E95DFE4F74
S1130C10E20FF11D908180910401981354C28091D8
S1130C202306893108F04EC080912106893108F0ED
S1130C3049C080911E06843108F044C080911F068B
S1130C40843108F03FC080912206843108F03AC014
S1130C508091260190E001962091060132E3389FAD
S1130C60F001399FF00D1124E95DFE4FE20FF11DF3
S1130C70908180912301981325C080910E01909159
S1130C800F014E9728F07CDC10920F0110920E0198
S1130C908091260190E00196309106012091050192
S1130CA042E3489FF001499FF00D1124E95DFE4F96
S1130CB0E30FF11D208380E0B3D20ADD80E0B0D2DF
S1130CC0FBCD0895809123068A3108F4FCC18091FC
S1130CD021068A3108F4F7C180912306863408F08E
S1130CE0F2C180912106863408F0EDC1809126017D
S1130CF090E002962091060132E3389FF001399F7B
S1130D00F00D1124E95DFE4FE20FF11D90818091F9
S1130D1023019813D8C180911E06843108F0D3C1F1
S1130D2080911F06843108F0CEC18091220684315F
S1130D3008F0C9C181E090E0909309018093080113
S1130D4080910E0190910F014E9728F019DC1092BA
S1130D500F0110920E018091260190E002963091CD
S1130D6006012091050142E3489FF001499FF00DDF
S1130D701124E95DFE4FE30FF11D208380E050D282
S1130D80A7DC80E04DD298CD089580912601E091B2
S1130D900601F0E092E3899FE00DF11D1124E85D66
S1130DA0FE4F908180912301981789F0809126014C
S1130DB0E0910601F0E022E3829FE00DF11D112491
S1130DC0E85DFE4F90818091040198137CC180916D
S1130DD02306893108F049C080912106893108F041
S1130DE044C080911E06843108F03FC080911F06E4
S1130DF0843108F03AC0809122068431B0F58091A4
S1130E002601E0910601F0E092E3899FE00DF11DD7
S1130E101124E85DFE4F908180912301981325C031
S1130E2080910E0190910F014E9728F0A9DB10924A
S1130E300F0110920E0190912601E0910601F0E05D
S1130E408091050122E3929FE00DF11D1124E85DDC
S1130E50FE4F808310920F0110920E0180E0E0D1CA
S1130E6037DC80E0DDD128CD0895809123068634D7
S1130E7008F029C180912106863408F024C18091AC
S1130E802601E0910601F0E092E3899FE00DF11D57
S1130E901124E75DFE4F908180912301981313C1C3
S1130EA080911E06843108F00EC180911F068431A2
S1130EB008F009C180912206843108F004C181E060
S1130EC090E0909309018093080180910E01909124
S1130ED00F014E9728F054DB10920F0110920E016F
S1130EE090912601E0910601F0E08091050122E352
S1130EF0929FE00DF11D1124E75DFE4F8083109257
S1130F000F0110920E0180E08BD1E2DB80E088D1EA
S1130F10D3CC08958091260190E001972091060199
S1130F2032E3389FF001399FF00D1124E95DFE4F43
S1130F30E20FF11D9081809123019817A1F0809117
S1130F40260190E0019720910601389FF001399F16
S1130F50F00D1124E95DFE4FE20FF11D90818091A7
S1130F6004019813B0C080912306893108F052C05F
S1130F7080912106893108F04DC080911E0684318C
S1130F8008F048C080911F06843108F043C0809166
S1130F902206843108F03EC08091260190E001973A
S1130FA02091060132E3389FF001399FF00D11249E
S1130FB0E95DFE4FE20FF11D9081809123019813AA
S1130FC029C080910E0190910F014E9728F0D8DA34
S1130FD010920F0110920E018091260190E001976A
S1130FE0309106012091050142E3489FF001499F99
S1130FF0F00D1124E95DFE4FE30FF11D20831092E3
S11310000F0110920E0180E00BD162DB80E008D169
S113101053CC089580912306863408F054C08091FF
S11310202106863408F04FC08091260190E0029793
S11310302091060132E3389FF001399FF00D11240D
S1131040E95DFE4FE20FF11D908180912301981319
S11310503AC080911E068431B0F580911F06843118
S113106090F580912206843170F581E090E09093B0
S113107009018093080180910E0190910F014E9710
S113108028F07EDA10920F0110920E018091260151
S113109090E00297309106012091050142E3489FB8
S11310A0F001499FF00D1124E95DFE4FE30FF11D9E
S11310B0208310920F0110920E0180E0B1D008DB62
S11310C080E0AED0F9CB08951CD920911A0130915B
S11310D01B0180911001909111012817390770F4B8
S11310E0809110019091110120911A0130911B01FE
S11310F0821B930B90930F0180930E0180910E013C
S113110090910F01849788F08091130181110DC093
S113111037DA80911A0190911B0190931101809309
S1131120100110920F0110920E0180911E068F3152
S1131130A0F080911F068F3180F0809122068932C1
S113114060F080911301811108C08CEC9CE101973F
S1131150F1F700C0000087DA24C0809122068832AB
S1131160D8F420911A0130911B01809100019091D3
S113117001012817390780F4809120068E3160F42C
S113118080911301811108C0A3DA8DE090E090935F
S113119001018093000105C080911301813009F49D
S11311A093D88091210190912201029729F4809192
S11311B01301811101C028CC08950E94660080911A
S11311C01E018111E6D880911501813009F47CDF7C
S11311D080911401813099F78091070121D0EFCFDC
S11311E088E98093C9001092CD0087E08093CC00F9
S11311F086E08093CA00089588E98093C100109224
S1131200C50087E18093C4008EE08093C2000895F6
S1131210E8ECF0E0908195FFFDCF8093CE00089537
S1131220E0ECF0E0908195FFFDCF8093C600089537
S1071230F894FFCF5C
S10B12340F0001000A0B191060
S9030000FC
