:1000000045C0000060C000005EC000005CC0000091
:100010005AC0000058C0000056C0000054C0000084
:1000200052C0000050C000004EC000004CC0000094
:100030004AC0000048C0000046C0000044C00000A4
:1000400042C0000040C000003EC000003CC00000B4
:10005000DCC0000038C0000036C0000034C0000022
:1000600032C0000030C000002EC000002CC00000D4
:10007000B9C0000028C0000026C0000024C0000055
:1000800022C0000020C000001EC0000011241FBEBE
:10009000CFEFD0E4DEBFCDBF11E0A0E0B1E0EAE9F0
:1000A000FEE000E00BBF02C007900D92A830B10740
:1000B000D9F726E0A8E0B1E001C01D92A632B20750
:1000C000E1F7AFD6E8C69CCF86E68AB98FEF84B950
:1000D000C6D6B9D678940895009721F0813091055D
:1000E000B9F02CC020912401309125012F5F3F4FA2
:1000F0003093250120932401209124013091250182
:1001000024303105D9F4109225011092240116C033
:10011000209124013091250121503109309325018E
:10012000209324012091240130912501332334F4BC
:1001300023E030E030932501209324012091240115
:1001400030912501EDE0F6E0268783870895BF9280
:10015000CF92DF92EF92FF920F931F93CF93DF9393
:10016000E12CF12C0F2EF2E3BF2EF02D24C0DC2E5B
:10017000F801EC0FFD1F908180910501981310C0CC
:10018000109207018C2D77D6809107018132E1F71B
:10019000109207018D2D6FD6809107018132E1F712
:1001A0002196C233D10519F78FEFE81AF80A89E1D1
:1001B000E816F10459F0CE2CC0E0D0E0BE9C8001DE
:1001C000BF9C100D1124095D1E4FD1CF84E453D67E
:1001D000DF91CF911F910F91FF90EF90DF90CF9023
:1001E000BF9008951F920F920FB60F9211248F9314
:1001F0008091CE008093070181E080931E018F9152
:100200000F900FBE0F901F9018951F920F920FB670
:100210000F9211240BB60F928F939F93EF93FF933E
:1002200010921201E0911F01F09120018091C6000F
:10023000E35FF94F808380911F0190912001019627
:100240009093200180931F0180911F0190912001C4
:100250000A9739F41092200110921F0181E08093D7
:100260001201FF91EF919F918F910F900BBE0F9014
:100270000FBE0F901F901895EEE1F6E0868190E09A
:100280009093190180931801878190E09093170152
:10029000809316010895F0DF809116019091170167
:1002A0002091180130911901982F8827820F931FF0
:1002B00090931B0180931A010895809102019091FF
:1002C0000301019731F481E0DED510920301109211
:1002D000020180910D06843160F480910E06843114
:1002E00040F41092130181E090E090930301809319
:1002F00002010895809112018130E1F7F89480E0C5
:1003000090E0FC01E35FF94F2081FC01E25EF94FD0
:100310002083019688309105A1F77894BCCF089589
:10032000CF93DF93E7DFC0E0D0E010920701FE013A
:10033000E25EF94F80819FD5809107018132E1F71C
:100340002196C830D10589F7C8E0D0E010920701A6
:10035000FE01E35FF94F80818ED5809107018132E4
:10036000E1F72196CF30D10589F71092070110925D
:100370001E01DF91CF910895809107018031A1F096
:100380008033D1F08130F1F4809315011092140183
:1003900082DF80911A0190911B019093110180934B
:1003A000100181E070D50EC01092150181E080939C
:1003B000140180E068D506C01092150181E0809399
:1003C0001401C5DE10921E010895809124019091C0
:1003D00025018130910509F44CC01CF4892B49F0AA
:1003E00008958230910509F477C0039709F49FC0FE
:1003F0000895809126018F5F8093260180912601C8
:10040000E0910601F0E022E3829FE00DF11D11244E
:10041000E85DFE4F9081809123019813B9C08091CF
:100420001106883208F0B4C020912601E09106013F
:10043000F0E09091050182E3829FE00DF11D11240F
:10044000E85DFE4F908390912601ADE0B6E01F96E7
:100450009C931F9790912601E0910601F0E0899FFF
:10046000E00DF11D1124E85DFE4F808150968C93C4
:100470000895809106018F5F809306018091260187
:1004800090E001972091060132E3389FF001399FF7
:10049000F00D1124E95DFE4FE20FF11D9081809176
:1004A0002301981375C080911106883208F070C03E
:1004B0008091260190E0019730910601209105017D
:1004C00042E3489FF001499FF00D1124E95DFE4F82
:1004D000E30FF11D208308958091260181508093C0
:1004E000260180912601E0910601F0E092E3899FC8
:1004F000E00DF11D1124EA5DFE4F908180912301F2
:10050000981346C080911106883208F041C090913E
:100510002601E0910601F0E08091050122E3929F1F
:10052000E00DF11D1124EA5DFE4F80830895809156
:1005300006018150809306018091260190E001968A
:100540002091060132E3389FF001399FF00D11240C
:10055000E95DFE4FE20FF11D908180912301981318
:1005600017C080911106883298F48091260190E09E
:100570000196309106012091050142E3489FF00168
:10058000499FF00D1124E95DFE4FE30FF11D20831B
:10059000089583E190E090930101809300017BDE58
:1005A00014DFE0912601909106018091040122E37D
:1005B000E29FF0011124E95DFE4FE90FF11D8083F8
:1005C00080912601EDE0F6E0848780910601858721
:1005D0008091210190912201892B31F481E090E0FA
:1005E0009093220180932101809121019091220119
:1005F0000197D1F480910C0190910D010197A1F424
:100600009091060180911D0198130EC090911C01DC
:1006100080912601981308C010920D0110920C01D0
:1006200059D180E030C40895809121019091220138
:10063000019709F58091260181111DC08091060165
:100640008931C9F480910A0190910B01019769F4F5
:1006500010920F0110920E0144D01092150181E00A
:100660008093140180E00FC4089582E090E090939D
:10067000220180932101089580E005D480910E012C
:1006800090910F010D9728F084DF10920F011092C6
:100690000E0181E08093130188E0F5D3EDE0F6E0F0
:1006A0008FE4808782E5828780858434E9F780E063
:1006B000EAD380E090E010DD2FEF8FEF98E021503B
:1006C00080409040E1F700C000002ADE80911A01CE
:1006D00090911B01909311018093100181E0D3C38D
:1006E000089580E0D0D380910E0190910F010D9775
:1006F00028F04FDF10920F0110920E0181E08093DD
:1007000013018FEF9FE80197F1F700C0000084E02C
:10071000BAD3EDE0F6E08FE480878CE482878085B1
:100720008434E9F780E0AFD381E090E0D5DC9FEF3F
:100730002FEF88E0915020408040E1F700C000009A
:1007400080912401909125018130910501F11CF4E3
:10075000892B41F060C08230910591F1039709F433
:1007600043C059C080911106883208F054C090915E
:100770002601E0910601F0E08091050122E3929FBD
:10078000E00DF11D1124E85DFE4F808344C080918F
:100790001106883208F03FC08091260190E0019751
:1007A000309106012091050142E3489FF001499FE5
:1007B000F00D1124E95DFE4FE30FF11D20832BC0E6
:1007C00080911106883238F590912601E09106015A
:1007D000F0E08091050122E3929FE00DF11D1124CC
:1007E000EA5DFE4F808317C080911106883298F42D
:1007F0008091260190E0019630910601209105013B
:1008000042E3489FF001499FF00D1124E95DFE4F3E
:10081000E30FF11D208384DD80911A0190911B016B
:100820009093110180931001089581E02CD362DD33
:1008300080911A0190911B014097C8F780E023D363
:100840001092130110920F0110920E018091080175
:1008500090910901019749F580912401909125011A
:100860008130910581F01CF4892B39F01DC0823054
:10087000910579F0039799F017C0809126018F5F59
:100880008093260111C0809106018F5F809306013D
:100890000BC08091260181508093260105C0809174
:1008A00006018150809306011CDF80910601809330
:1008B0001D018091260180931C0180E0E4D281E03B
:1008C00090E0909322018093210190930D018093F9
:1008D0000C01089510920F0110920E0102DF81E0C9
:1008E000D2D208DD80911A0190911B014097C8F780
:1008F00080E0C9D21092130110920F0110920E01E4
:100900008091080190910901019761F58AE0809337
:100910001C0680912401909125018130910581F080
:100920001CF4892B39F01DC08230910579F00397B2
:1009300099F017C0809126018F5F8093260111C026
:10094000809106018F5F809306010BC08091260184
:1009500081508093260105C08091060181508093CB
:100960000601BFDE81E090E0909322018093210197
:1009700090930B0180930A01089580912401909136
:1009800025018130910509F472C01CF4892B49F0CE
:1009900008958230910509F4E0C0039709F44BC132
:1009A000089580912601E0910601F0E022E3829F04
:1009B000E00DF11D1124EA5DFE4F9081809123012D
:1009C0009813B5C1809112068931D0F48091100638
:1009D0008931B0F490912601E0910601F0E0809118
:1009E000050122E3929FE00DF11D1124EA5DFE4F07
:1009F000808380E048D275DE80E045D216CF08952E
:100A000080911206863408F092C1809110068634D7
:100A100008F08DC180912601E0910601F0E092E39B
:100A2000899FE00DF11D1124EB5DFE4F90818091B7
:100A3000230198137CC181E090E090930901809399
:100A4000080190912601E0910601F0E080910501F6
:100A500022E3929FE00DF11D1124EB5DFE4F808398
:100A600080E011D23EDE80E00ED2DFCE089580918C
:100A7000260190E001962091060132E3389FF001B3
:100A8000399FF00D1124E95DFE4FE20FF11D9081B9
:100A90008091230198134BC1809112068931F0F4A3
:100AA000809110068931D0F48091260190E0019662
:100AB000309106012091050142E3489FF001499FD2
:100AC000F00D1124E95DFE4FE30FF11D208380E05E
:100AD000DAD107DE80E0D7D1A8CE08958091120642
:100AE000803508F024C180911006803508F01FC1C0
:100AF0008091260190E002962091060132E3389F12
:100B0000F001399FF00D1124E95DFE4FE20FF11D58
:100B100090818091230198130AC181E090E0909325
:100B20000901809308018091260190E0029630919E
:100B300006012091050142E3489FF001499FF00D15
:100B40001124E95DFE4FE30FF11D208380E09BD16E
:100B5000C8DD80E098D169CE089580912601E091AA
:100B60000601F0E092E3899FE00DF11D1124E85D9C
:100B7000FE4F9081809123019813D9C08091120675
:100B80008931F0F4809110068931D0F490912601DA
:100B9000E0910601F0E08091050122E3929FE00DD3
:100BA000F11D1124E85DFE4F808310920F01109219
:100BB0000E0180E068D195DD80E065D136CE0895E4
:100BC00080911206803508F0B2C080911006803501
:100BD00008F0ADC080912601E0910601F0E092E3BB
:100BE000899FE00DF11D1124E75DFE4F90818091FA
:100BF000230198139CC081E090E0909309018093B9
:100C0000080190912601E0910601F0E08091050134
:100C100022E3929FE00DF11D1124E75DFE4F8083DA
:100C200010920F0110920E0180E02DD15ADD80E06C
:100C30002AD1FBCD08958091260190E00197209163
:100C4000060132E3389FF001399FF00D1124E95D70
:100C5000FE4FE20FF11D908180912301981367C030
:100C600080911206893110F5809110068931F0F4D7
:100C70008091260190E001973091060120910501B5
:100C800042E3489FF001499FF00D1124E95DFE4FBA
:100C9000E30FF11D208310920F0110920E0180E0EE
:100CA000F2D01FDD80E0EFD0C0CD08958091120614
:100CB000803508F03CC0809110068035C0F58091E9
:100CC000260190E002972091060132E3389FF0015F
:100CD000399FF00D1124E95DFE4FE20FF11D908167
:100CE00080912301981323C081E090E09093090143
:100CF000809308018091260190E0029730910601CF
:100D00002091050142E3489FF001499FF00D112415
:100D1000E95DFE4FE30FF11D208310920F01109249
:100D20000E0180E0B0D0DDDC80E0ADD07ECD089556
:100D3000E1DA20911A0130911B018091100190910C
:100D400011012817390770F4809110019091110159
:100D500020911A0130911B01821B930B90930F017C
:100D600080930E0180910E0190910F01849788F07D
:100D70008091130181110DC00CDC80911A019091BA
:100D80001B01909311018093100110920F0110929A
:100D90000E018091210190912201029729F4809106
:100DA0001301811101C0E9DD80911E068F31A0F091
:100DB00080911F068F3180F080912206893260F089
:100DC00080911301811108C08CEC9CE10197F1F72F
:100DD00000C0000051CC0895809122068832D8F4DA
:100DE00020911A0130911B01809100019091010125
:100DF0002817390780F480910F068E3160F48091B6
:100E00001301811108C06DDC8FE090E09093010127
:100E100080930001089580911301813009F44DCA37
:100E2000089552D980911E018111A6DA8091150191
:100E3000813009F47DDF80911401813099F7809130
:100E4000070121D0EFCF88E98093C9001092CD002F
:100E500087E08093CC0086E08093CA00089588E9FB
:100E60008093C1001092C50087E18093C4008EE09A
:100E70008093C2000895E8ECF0E0908195FFFDCFEB
:100E80008093CE000895E0ECF0E0908195FFFDCFD7
:0A0E90008093C6000895F894FFCF88
:080E9A00130001000A0B1910FE
:00000001FF
