:1000000045C0000060C000005EC000005CC0000091
:100010005AC0000058C0000056C0000054C0000084
:1000200052C0000050C000004EC000004CC0000094
:100030004AC0000048C0000046C0000044C00000A4
:1000400042C0000040C000003EC000003CC00000B4
:100050003AC0000038C0000036C0000034C00000C4
:1000600032C0000030C000002EC000002CC00000D4
:10007000D6C5000028C0000026C0000024C0000033
:1000800022C0000020C000001EC0000011241FBEBE
:10009000CFEFD0E4DEBFCDBF11E0A0E0B1E0E4E0FF
:1000A000FEE000E00BBF02C007900D92A230B10746
:1000B000D9F723E0A2E0B1E001C01D92AE30B20753
:1000C000E1F7DCD59DC69CCF86ED7BD080E29ED04B
:1000D00080E09CD0C3D086ED74D080E297D08FE0D2
:1000E00095D0BCD086ED6DD083E290D082E08ED0EA
:1000F000B5C008958F929F92AF92BF92CF92DF9238
:10010000EF92FF9286ED5DD08CEA80D087ED59D0DA
:100110008FD0882E912CA12CB12C95D0C82ED12C0B
:10012000DC2CCC240D2C000CEE08FF08C828D928A4
:10013000EA28FB2893D0C701B601675979428109A3
:100140009109FF90EF90DF90CF90BF90AF909F907C
:100150008F900895CF92DF92EF92FF920F931F93AB
:10016000CF93DF938C01181619067CF4C0E0D0E021
:10017000C12CD12C7601BEDFC60ED71EE81EF91E9B
:1001800021960C171D07B9F703C0C12CD12C76019D
:100190009801110F440B550BC701B601DED5CA01FA
:1001A000B901DF91CF911F910F91FF90EF90DF90F8
:1001B000CF90089581E08093B9008AE08093B800E1
:1001C0000895ECEBF0E0108294EA908390819923FB
:1001D000ECF79091B900987F9830A1F48093BB0020
:1001E00084E88093BC00ECEBF0E080818823ECF79E
:1001F0009091B900987F983139F081E0903429F4DA
:1002000080E0089581E0089580E008958093BB0028
:1002100084E88093BC00ECEBF0E080818823ECF76D
:100220009091B900987F81E0983209F480E00895B8
:1002300084EC8093BC00ECEBF0E080818823ECF749
:100240008091BB00089584E88093BC00ECEBF0E063
:1002500080818823ECF78091BB00089584E9809326
:10026000BC00089580E090E029B10097E9F74F9B2A
:10027000FECF21E030E02F5F3F4F81E38A95F1F719
:10028000000099B190782D3484E0380719F4EADF42
:100290009C0102C09111EFCF80910001909101016A
:1002A000AC014C5F5F4F4217530720F004972817AB
:1002B000390730F43093010120930001D3DF9C0112
:1002C0003093010120930001C9010895EF92FF923C
:1002D0000F931F93CF93DF93A3E0B2E020E030E0D1
:1002E00090EE6CE770E0EAE7F0E00F2EF9E7EF2E12
:1002F000F12CF02D8D0102C09F5F9A01EB019883D4
:10030000808180648083808186FDFDCFE7018881C4
:100310008D93A9014F5F5F4F2130310531F4853F47
:1003200058F7865FE8018983E7CF4630510524F30B
:10033000DF91CF911F910F91FF90EF900895E3E02F
:10034000F2E080E090E0833091053CF4A081B0E0E1
:10035000A35FBD4F2C91208306C0A081B0E0AC5FAD
:10036000BE4F2C912083019631968630910559F726
:100370000895E4E0F1E08AE08093030280930202B2
:1003800080930102809300028093FF018093FE011D
:100390008093FD018093FC018093FB018093FA011F
:1003A0008093F9018093F8018093F7018093F6011F
:1003B0008093F5018093F4018093F3018093F2011F
:1003C0008093F1018093F0018093EF018093EE011F
:1003D0008093ED018093EC018093EB018093EA011F
:1003E0008093E9018093E8018093E7018093E6011F
:1003F0008093E5018093E4018093E3018093E2011F
:100400008093E1018093E0018093DF018093DE011E
:100410008093DD018093DC018093DB018093DA011E
:100420008093D9018093D8018093D7018093D6011E
:100430008093D5018093D4018093D3018093D2011E
:100440008093D1018093D0018093CF018093CE011E
:100450008093CD018093CC018093CB018093CA011E
:100460008093C9018093C8018093C7018093C6011E
:100470008093C5018093C4018093C3018093C2011E
:100480008093C1018093C0018093BF018093BE011E
:100490008093BD018093BC018093BB018093BA011E
:1004A0008093B9018093B8018093B7018093B6011E
:1004B0008093B5018093B4018093B3018093B2011E
:1004C0008093B1018093B0018093AF018093AE011E
:1004D0008093AD018093AC018093AB018BE080935E
:1004E000AA018093A9018093A8018093A70180931A
:1004F000A6018093A5018093A4018CE08093A301C1
:100500008093A2018093A1018093A00180939F0119
:1005100080939E0180939D0180939C0180939B0119
:100520009DE090939A0190939901909398019093F4
:10053000970190939601909395019EE0909394017A
:1005400090939301909392019093910190939001D5
:1005500090938F0190938E0180938D0180938C01F5
:100560008FE080938B0180938A018093890180932F
:10057000880180E1809387018093860180938501C3
:10058000809384018093830181E180938201809331
:1005900081018093800180937F0182E180937E01BD
:1005A00080937D0180937C0183E180937B01809324
:1005B0007A01809379018093780184E180937701B7
:1005C0008093760180937501809374018093730109
:1005D00085E1809372018093710180937001809313
:1005E0006F0186E180936E0180936D0180936C01B1
:1005F00080936B0187E180936A018093690188E1B0
:10060000809368018093670189E1809366018093FC
:100610006501809364018AE18093630180936201A4
:100620008BE1809361018CE18093600180935F0195
:100630008DE180935E0180935D018EE180935C018A
:1006400080935B018FE180935A018093590180E28E
:10065000809358018093570181E2809356018093E3
:10066000550182E2809354018093530183E2809389
:10067000520184E2809351018093500185E280937E
:100680004F0180934E0186E280934D0187E2809373
:100690004C0188E280934B0180934A018093490189
:1006A0008DE28093480180934701809346018093B7
:1006B00045018093440187AF86AF87E385AF84AF60
:1006C00083AF82AF81AF81E480AF87AB86AB86E436
:1006D00085AB84AB8BE483AB82AB80E581AB80AB35
:1006E00081E587A786A785A784A783A782A781A777
:1006F00080A787A386A385A384A383A382A381A3C2
:1007000080A3878F868F858F848F838F828F818F41
:10071000808F878B868B858B848B838B828B818B61
:10072000808B878786878587848783878287818771
:100730008087878386838583848383838283818381
:10074000808310920C0310920B0310920A031092F4
:1007500009031092080310920703109206031092E7
:1007600005031092040310920303109202031092E7
:1007700001031092000381E08093FF02EDE0F2E0BC
:100780008093FE028093FD028093FC028093FB0223
:100790008093FA028093F9028093F8028093F70223
:1007A0008093F6028093F5028093F4028093F30223
:1007B0008093F2028093F1028093F0028093EF0223
:1007C0008093EE028093ED028093EC028093EB0223
:1007D0008093EA028093E9028093E8028093E70223
:1007E0008093E6028093E50282E08093E4028093A6
:1007F000E3028093E2028093E1028093E00280931F
:10080000DF028093DE028093DD028093DC0280931E
:10081000DB028093DA028093D9028093D80280931E
:10082000D7028093D6028093D5028093D40280931E
:10083000D3028093D2028093D1028093D00280931E
:10084000CF028093CE028093CD028093CC0280931E
:10085000CB028093CA0283E08093C9028093C802CE
:100860008093C7028093C6028093C5028093C4021E
:100870008093C3028093C2028093C1028093C0021E
:100880008093BF028093BE028093BD028093BC021E
:100890008093BB028093BA028093B9028093B8021E
:1008A0008093B7028093B6028093B5028093B4021E
:1008B00084E08093B3028093B2028093B10280936C
:1008C000B0028093AF028093AE028093AD0280931A
:1008D000AC028093AB028093AA028093A90280931A
:1008E000A8028093A7028093A6028093A50285E0C8
:1008F0008093A4028093A3028093A2028093A1021A
:100900008093A00280939F0280939E0280939D0219
:1009100080939C0280939B0280939A028093990219
:100920008093980286E0809397028093960280934A
:100930009502809394028093930280939202809315
:1009400091028093900280938F0280938E02809315
:100950008D0280938C0287E080938B0280938A02C1
:100960008093890280938802809387028093860215
:1009700080938502809384028093830288E0809331
:100980008202809381028093800280937F02809311
:100990007E0289E080937D0280937C0280937B02BB
:1009A00080937A0280937902809378028093770211
:1009B0008AE080937602809375028093740280931C
:1009C00073028BE0809372028093710280937002B5
:1009D00080936F0280936E0280936D028CE080930F
:1009E0006C0280936B0280936A02809369028DE0AF
:1009F0008093680280936702809366028093650209
:100A000080936402809363028EE0809362028093FD
:100A10006102809360028FE080935F0280935E02A8
:100A200080935D0280E180935C0280935B028093FF
:100A30005A0281E1809359028093580280935702B1
:100A400082E180935602809355028093540283E1A1
:100A5000809353028093520284E1809351028093E9
:100A6000500285E180934F0280934E0287E180938C
:100A70004D0287AF88E186AF85AF89E184AF83AF50
:100A80008AE182AF81AF8BE180AF87AB8CE186AB2F
:100A90008DE185AB8EE184AB8FE183AB82AB81AB23
:100AA00080AB87A786A785A784A783A782A781A7EE
:100AB00080A787A386A385A384A383A382A381A3FE
:100AC00080A3878F868F858F848F838F828F818F7E
:100AD000808F878B868B858B848B838B828B818B9E
:100AE000808B8787868785878487838782878187AE
:100AF00080878783868385838483838382838183BE
:100B0000808308958FEF84B986E68AB95E98089548
:100B10000F931F93CF93DF93C3E0D2E00DE012E079
:100B2000899113D1C017D107D9F7DF91CF911F91C8
:100B30000F910895CF92DF92EF92FF92CF93DF93C0
:100B40008CE480930B02C12CD12C7601C4E8D0E058
:100B50001982188288E090E0FDDA28813981DB0172
:100B600018D1C60ED71EE81EF91EC1148CEFD80688
:100B70008CEAE80686E0F8065CF3C3E0D2E0A6DB88
:100B80004881242F30E024513109898190E0821777
:100B9000930714F4493598F7C3E0D2E084E48887DA
:100BA000CEDBB6DF86E48887DF91CF91FF90EF90B0
:100BB000DF90CF900895CF92DF92EF92FF92CF9384
:100BC000DF9382E580930B02C12CD12C7601C4E81F
:100BD000D0E01982188288E090E0BCDA288139815F
:100BE000DB01D7D0C60ED71EE81EF91E81ECC81651
:100BF00086EAD8068CE8E80688EFF80654F7C3E0E2
:100C0000D2E084E4888762DB9ADB82DF86E488872F
:100C1000DF91CF91FF90EF90DF90CF9008951F92DA
:100C20000F920FB60F9211248F938091CE00809374
:100C30000C028C3421F481E08093030105C08235DD
:100C400019F481E0809302018F910F900FBE0F90F5
:100C50001F90189580EE80937C0083E880937A0043
:100C60000895CF93DF9380E068D0C3E0D2E088811D
:100C700064D0898162D0DF91CF9108959BDA24DA24
:100C800044D040DFE7DF4DD0E1E8F0E080818560CF
:100C9000808378946EDB03E012E018DBE2DFC1E0D2
:100CA000D0E01AC013DBDDDF2196CA30D105A1F4F4
:100CB000D9DA90930D0380930C0380910C039091EB
:100CC0000D03F801868380910C0390910D039783A7
:100CD00036DB1EDFC0E0D0E080910301813041F4BB
:100CE00029DF1092030180910201813049F404C090
:100CF000809102018130B1F65EDF10920201CDCF0A
:100D0000E5DAAFDFC1E0D0E0E7CF88E98093C90042
:100D10001092CD008FE18093CC008EE08093CA00CA
:100D2000089588E18093C1001092C50087E1809307
:100D3000C4008EE08093C2000895E8ECF0E090815A
:100D400095FFFDCF8093CE000895E0ECF0E0908118
:100D500095FFFDCF8093C6000895052E97FB16F4EE
:100D600000940FD057FD05D01AD007FC02D046F4EE
:100D700008C050954095309521953F4F4F4F5F4F9C
:100D8000089590958095709561957F4F8F4F9F4FF7
:100D9000089527D0B7FF0895821B930B0895A1E211
:100DA0001A2EAA1BBB1BFD010DC0AA1FBB1FEE1FE5
:100DB000FF1FA217B307E407F50720F0A21BB30B30
:100DC000E40BF50B661F771F881F991F1A9469F7AC
:100DD00060957095809590959B01AC01BD01CF0108
:100DE0000895A29FB001B39FC001A39F700D811D04
:100DF0001124911DB29F700D811D1124911D089524
:040E0000F894FFCF94
:020E0400640088
:00000001FF
