S0110000737479726D6F64756C2E7372656320
S113000045C0000053C0000051C000004FC00000B4
S11300104DC000004BC0000049C0000047C00000B4
S113002045C0000043C0000041C000003FC00000C4
S11300303DC000003BC0000039C0000037C00000D4
S113004035C0000033C0000031C000002FC00000E4
S11300502DC000002BC0000029C0000027C00000F4
S113006025C0000023C0000021C000001FC0000004
S11300701DC000001BC0000019C0000017C0000014
S113008015C0000013C0000011C0000011241FBEE1
S1130090CFEFD0E4DEBFCDBF21E0A0E0B1E001C0EE
S11300A01D92A730B207E1F7D3D17EC2A9CF0F9337
S11300B01F93CF93DF93D82F162FC42F022F809135
S11300C0020150D2000FC00FC295C07FC5B9612F85
S11300D070E070939900609398008D2F90E0909356
S11300E09B0080939A00DF91CF911F910F91089507
S11300F0CF93DF93EC0126D2811105C023D28883EC
S113010021D2898302C0CE01F3DFDF91CF9108951C
S11301102F923F924F925F926F927F928F929F9213
S1130120AF92BF92CF92DF92EF92FF920F931F9301
S1130130CF93DF9300D0CDB7DEB783E58093020180
S113014019D225D2CE010196D3DF8091C000882335
S11301500CF4C8C0812C912C612C712CAA24AA9473
S1130160B12C412C0F2EF4E13F2EF02D512C0F2EEB
S1130170FAEA2F2EF02D0F2EF0ECEF2EF12CF02DAD
S113018089818B3418F09A819B3430F421E041E06A
S113019065E585E58CDF9EC08501081B1109950185
S11301A0291B3109C80188579109021B130B959526
S11301B08795959587956801C80ED91E1195019567
S11301C01109081B190B80910301909104019601F8
S11301D0220F331F289FD001299FB00D389FB00DE7
S11301E0112480910001909101019601261937098B
S11301F0289FB001299F700D389F700D1124209104
S1130200030130910401A801440F551F429FC0010E
S1130210439F900D529F900D1124409100015091E5
S11302200101F801E819F909E49F9001E59F300DF7
S1130230F49F300D1124022E232F000C221F330BA8
S1130240000C221F331F082E892F000C881F990BC6
S1130250000C881F991F820F931F062E672F000C16
S1130260661F770B000C661F771F0A2EAB2F000C3E
S1130270AA1FBB0B000CAA1FBB1F6A0F7B1F6B5A64
S11302807F4F6B3A7105A0F564317105D0F19C0183
S11302902B5A3F4F2B3A310540F42431310568F095
S11302A0822F2036310588F001C0822D6036710519
S11302B060F085E568E270E008C084E106C085E589
S11302C068E270E002C0822D632D21E041E0EFDEA0
S11302D048013601CE0101960BDFF70180818823A6
S11302E00CF04ECF20E040E060E080E0E0DE12C0A1
S11302F09C012B5A3F4F2B3A310508F76AEA742DBB
S1130300CCCF9C012B5A3F4F2B3A3105E0F6632D9D
S1130310752DC3CF0F900F90DF91CF911F910F9147
S1130320FF90EF90DF90CF90BF90AF909F908F9011
S11303307F906F905F904F903F902F90089581EA47
S11303408093900083E08093910016BC8FEF84B972
S11303508AE08AB90895019749F420E041E06AE50A
S11303608AE5A5DE84E480930201089521E040E05B
S11303706AE58AE59CDE84E48093020108958F7027
S1130380813039F486E48093020180E090E0C0CEAD
S11303900895823039F482E48093020181E090E090
S11303A0B7CE0895843039F48CE48093020180E060
S11303B090E0D1CF0895883031F482E58093020132
S11303C081E090E0C8CF089581FB442740F9982F3D
S11303D09D70913029F4242F6CED8CED68CE089536
S11303E08F70843049F486E58093020121E040E077
S11303F06CED8CED5CCE0895883049F488E48093EC
S1130400020120E041E06CED8CED51CE089587307F
S113041029F4242F60E58CED4ACE08958B3029F41D
S1130420242F6CED80E543CE0895853029F4242FE4
S11304306CED80E53CCE0895893029F4242F60E5E5
S11304408CED35CE0895242F60E080E030CE089501
S11304506DD075DF5FD080E290E0909304018093CB
S1130460030110920601109205018EE190E0909331
S1130470010180930001D1E40F2EFDE4FF2EF02D45
S113048087E570D067D0C82F809102016BD0C1116D
S113049006C020E040E060E080E009DE36C08C2F3A
S11304A08295869586958370823069F4CF778C2FF8
S11304B090E0909304018093030120E040E060E029
S11304C080E0F5DDDDCF813041F4CF738C2F90E0F7
S11304D09093010180930001D3CF833041F4CF7313
S11304E08C2F90E09093060180930501C9CFC4FB43
S11304F0002700F910E0C4FF05C0F09202018C2F20
S113050063DFBECF012B09F0BBCFD09302018C2F48
S113051036DFB6CF80E18093C1001092C50087E139
S11305208093C4008EE08093C200089588E1809394
S1130530C9001092CD008FE18093CC008EE08093AF
S1130540CA000895E8ECF0E080818823ECF78091FC
S1130550CE000895E0ECF0E080818823ECF78091F0
S1130560C6000895E8ECF0E0908195FFFDCF8093FC
S1130570CE0008958091C800882344F4AEECB0E026
S1130580E8ECF0E08C9180818823E4F30895809175
S1130590C000882344F4A6ECB0E0E0ECF0E08C91D9
S10F05A080818823E4F30895F894FFCFD1
S9030000FC
