S0110000737479726D6F64756C2E7372656320
S113000045C0000053C0000051C000004FC00000B4
S11300104DC000004BC0000049C0000047C00000B4
S113002045C0000043C0000041C000003FC00000C4
S11300303DC000003BC0000039C0000037C00000D4
S113004035C0000033C0000031C000002FC00000E4
S11300502DC000002BC0000029C0000027C00000F4
S113006025C0000023C0000021C000001FC0000004
S11300701DC000001BC0000019C0000017C0000014
S113008015C0000013C0000011C0000011241FBEE1
S1130090CFEFD0E4DEBFCDBF21E0A0E0B1E001C0EE
S11300A01D92A730B207E1F7C3D154C2A9CF0F9371
S11300B01F93CF93DF93D82F162FC42F022F809135
S11300C0020140D2000FC00FC295C07FC5B9612F95
S11300D070E070939900609398008D2F90E0909356
S11300E09B0080939A00DF91CF911F910F91089507
S11300F0CF93DF93EC0116D2811105C013D288830C
S113010011D2898302C0CE01F3DFDF91CF9108952C
S11301102F923F924F925F926F927F928F929F9213
S1130120AF92BF92CF92DF92EF92FF920F931F9301
S1130130CF93DF9300D0CDB7DEB783E58093020180
S1130140CE010196D5DF812C912C612C712C0F2EC0
S1130150F0ECEF2EF12CF02DAA24AA94B12C412C12
S11301600F2EF4E13F2EF02D512C0F2EF8E72F2EF9
S1130170F02DA9C0CE010196BBDF8981823318F02E
S11301809A81923330F421E041E064E684E68FDF23
S11301909AC08501081B11099501291B3109C80161
S11301A084569109021B130B6C01C00ED11E1195CC
S11301B001951109081B190B809103019091040109
S11301C09601220F331F289FD001299FB00D389F1D
S11301D0B00D11248091000190910101960126191E
S11301E03709289FB001299F700D389F700D112485
S11301F02091030130910401A801440F551F429F2F
S1130200C001439F900D529F900D11244091000115
S113021050910101F801E819F909E49F9001E59F63
S1130220300DF49F300D1124022E232F000C221FB9
S1130230330B000C221F331F082E892F000C881F3C
S1130240990B000C881F991F820F931F062E672F8E
S1130250000C661F770B000C661F771F0A2EAB2F4E
S1130260000CAA1FBB0B000CAA1FBB1F6A0F7B1F2D
S11302706C597F4F6937710588F564317105B8F1A0
S11302809C012C593F4F2937310540F42431310565
S113029068F0822F2F36310588F001C0822D6F3629
S11302A0710560F084E668E270E008C084E106C08D
S11302B084E668E270E002C0822D632D21E041E013
S11302C0F6DE48013601F701808188230CF052CF15
S11302D020E040E060E080E0EADE12C09C012C599E
S11302E03F4F2937310520F768E7742DCFCF9C01A4
S11302F02C593F4F29373105F8F6632D752DC6CF9C
S11303000F900F90DF91CF911F910F91FF90EF907D
S1130310DF90CF90BF90AF909F908F907F906F9021
S11303205F904F903F902F90089581EA80939000C2
S113033083E08093910016BC8FEF84B98AE08AB978
S11303400895019731F420E041E068E788E7AFCEF3
S1130350089521E040E068E788E7A9CE08958F700A
S1130360813039F486E48093020180E090E0D0CEBD
S11303700895823039F482E48093020181E090E0B0
S1130380C7CE0895843039F48CE48093020180E070
S113039090E0D7CF0895883031F482E5809302014C
S11303A081E090E0CECF089581FB442740F9982F57
S11303B09D70913029F4242F6CED8CED78CE089546
S11303C08F70843049F486E58093020121E040E097
S11303D06CED8CED6CCE0895883049F488E48093FC
S11303E0020120E041E06CED8CED61CE0895873090
S11303F029F4242F60E58CED5ACE08958B3029F42E
S1130400242F6CED80E553CE0895853029F4242FF4
S11304106CED80E54CCE0895893029F4242F60E5F5
S11304208CED45CE0895242F60E080E040CE089501
S11304306DD07BDF5FD082E290E0909304018093E3
S1130440030110920601109205018EE190E0909351
S1130450010180930001D1E40F2EFDE4FF2EF02D65
S113046087E570D067D0C82F809102016BD0C1118D
S113047006C020E040E060E080E019DE36C08C2F4A
S11304808295869586958370823069F4CF778C2F18
S113049090E0909304018093030120E040E060E049
S11304A080E005DEDDCF813041F4CF738C2F90E006
S11304B09093010180930001D3CF833041F4CF7333
S11304C08C2F90E09093060180930501C9CFC4FB63
S11304D0002700F910E0C4FF05C0F09202018C2F40
S11304E063DFBECF012B09F0BBCFD09302018C2F69
S11304F036DFB6CF80E18093C1001092C50087E15A
S11305008093C4008EE08093C200089588E18093B4
S1130510C9001092CD008FE18093CC008EE08093CF
S1130520CA000895E8ECF0E080818823ECF780911C
S1130530CE000895E0ECF0E080818823ECF7809110
S1130540C6000895E8ECF0E0908195FFFDCF80931C
S10B0550CE000895F894FFCFDA
S9030000FC
